:030000000209E50D
:0C09E500787FE4F6D8FD7581500207BC55
:050A05007A686F750026
:0D09D800C2A5D2A600D2A700C2A7AF802200
:10097B00C2A7A20092A5C2A60085088000D2A7003C
:06098B00C2A7000209D81A
:0A09F100C200EF4408F50802097B7C
:0A09FB00C200EF4404F50802097B76
:10086F00C2A7C20075083812097BC200750838127A
:10087F00097B7F041209F1C20075080112097B7F01
:04088F00020209FB5D
:1008F600AE07ED700AC200EE4480F50812097BBD12
:0F090600010CC200EE24C04480F50812097B22C8
:10094D0012066DFF6010D200F50812097B740129A3
:07095D00F9E43AFA80EA22F6
:0F09B800EF7F08A2E09296D297C297C313DFF4A5
:0109C700220D
:0F09C8007F08C313A29692E7D297C297DFF4FF7E
:0109D70022FD
:1007F000F5287F80120991AC07E4FD7F8E12080D69
:0D080000EC547FFD7F8012080D7D807F8EFF
:10080D00AE05C295C297D2951209B8AF061209B8B6
:05081D00D297C29522F4
:10099100C295C297D295EF4401FF1209B81209C856
:0409A100D297C29592
:0109A500222F
:1005BA007F80120991EF5470C4540F75F00AA4FE9B
:1005CA00EF540F2E1206B37F82120991EF5470C4B2
:1005DA00540F75F00AA4FEEF540F2E900001120674
:1005EA00C57F84120991EF5470C4540F75F00AA4A0
:1005FA00FEEF540F2E9000021206C57F8612099153
:10060A00EF5470C4540F75F00AA4FEEF540F2E90E5
:10061A0000041206C57F8A120991EF5470C4540F60
:10062A0075F00AA4FEEF540F2E9000031206C57F40
:10063A0088120991EF5470C4540F75F00AA4FEEFA2
:10064A00540F2E9000051206C57F8C120991EF54A3
:10065A0070C4540F75F00AA4FEEF540F2E900006D2
:03066A000206C5C0
:10020900C3E5286480948290000750327432120644
:10021900C590000874301206C5900006120686754E
:10022900F00A8424309000091206C59000061206CF
:100239008675F00A84E5F0243090000A801A74204B
:100249001206C590000874201206C5900009742092
:100259001206C590000A74201206C590000B742D71
:100269001206C5C3E52264809482502590000512C8
:10027900068675F00A84243090000C1206C5900099
:100289000512068675F00A84E5F0243090000D8089
:100299000D90000C74201206C590000D74201206F2
:1002A900C590000E742D1206C5C3E52D6480948295
:1002B900502590000412068675F00A8424309000B7
:1002C9000F1206C590000412068675F00A84E5F03F
:1002D9002430900010800D90000F74201206C590F4
:1002E900001074201206C5C3E5246480948250125C
:1002F90090000312068675F00A84E5F02430F5268D
:0E0309008003752620E4F5279000110206C53A
:1004F000C3E52E6480948250259000021206867512
:10050000F00A8424309000121206C59000021206F0
:100510008675F00A84E5F02430900013800D900079
:100520001274201206C590001374201206C59000A4
:1005300014743A1206C5C3E52F6480948250259046
:10054000000112068675F00A842430900015120608
:10055000C590000112068675F00A84E5F0243090FB
:100560000016800D90001574201206C590001674B8
:10057000201206C5900017743A1206C5C3E52C6414
:10058000809482501E12066DFF75F00A842430900C
:1005900000181206C5EF75F00A84E5F024309000CB
:1005A00019800D90001874201206C590001974204F
:0A05B0001206C590000FE40206C514
:100746007F80120991EF30E734E4FD7F8E12080DA9
:100756007D077F8C12080D7F8812080D7D257F8608
:1007660012080D7D077F8A12080D7D237F841208EB
:0D0776000D7D597F8212080D7D551208047B
:010783002253
:0709A6001209337F647E009B
:0B09AD00EF1FAC0670011E4C70F6221C
:10082200E4FDD2907F08FE1209ADC2907F507E0097
:100832001209ADD2907F0E7E001209ADA290E43370
:08084200FD7F147E000209ADE8
:10091500E4FB7D08C290EBC313FBD29030900343F8
:0D09250003807F047E001209ADDDE9AF0301
:0109320022A2
:02093300AD070E
:100935007B08C290ED1392907F057E001209ADD21F
:0709450090EDC313FDDBEB95
:01094C002288
:10078400E4FAFFF5081208227FCC1209337F4412E1
:1007940009A61208227FCC1209337FBE1209A612C1
:1007A4000915AA07120915EFC454F0F52BEA54F001
:0707B400C4540F252BF52BA7
:0107BB00221B
:1008B600E52B75F00A842430F531E52B75F00A84B2
:1008C600E5F02430F532753320753443E4F53522EE
:1008D600E4FDFCC3ED9FEC9E5015E4FBFA0BBB0058
:0F08E600010AEB64784A70F50DBD00010C80E447
:0108F50022E0
:040893007F087E005C
:10089700D3EF9400EE94004015E4FDFC0DBD00017C
:0E08A7000CED643E4C70F5EF1F70E51E80E214
:0108B5002220
:10084A0030A30330B01E120893E4F525F52CF52FDA
:10085A00F52EF52DF524F5221207F0E4F52330A341
:04086A00FD20B0FDC0
:01086E002267
:10031700D2A130A10620B103020410120893E525EB
:1003270014B40700400302040A90033E75F003A4C7
:10033700C58325F0C5837302035302037002038A42
:100347000203A10203B80203CF0203E97F80120967
:10035700918F2A052A753001E52A547FD36480944A
:10036700D9500302040A0204077F821209918F2AD7
:10037700052A753001D3E52A648094D95003020415
:100387000A807D7F841209918F2A052A753001D34F
:10039700E52A648094A3406B80667F8A1209918F57
:1003A7002A052A753001D3E52A6480948740548052
:1003B7002C7F861209918F2A052A753001D3E52AE9
:1003C700648094B1403D80157F881209918F2A057A
:1003D7002A753001D3E52A648094924026752A0154
:1003E70080217F8C1209918F2A052A753001AF2A47
:1003F700EF3395E0FED3EF9485EE6480948040035D
:0A040700E4F52A30A1FD20B1FD222A
:0604110012084A12031755
:10041700D2A230A20620B2030204EF120893E52508
:1004270014B4070040030204E990043E75F003A4E6
:10043700C58325F0C5837302045302046A0204804E
:100447000204960204AB0204C00204D57F8012099D
:10045700918F2A152A752901E52A647F6003020412
:10046700E980117F821209918F2A152A752901E5E2
:100477002AF4706E752A5980697F841209918F2A30
:10048700152A752901E52AF47058752A2380537FA8
:100497008A1209918F2A152A752901E52A70437551
:1004A7002A07803E7F861209918F2A152A7529010E
:1004B700E52A702E752A1F80297F881209918F2AB5
:1004C700152A752901E52A7019752A0C80147F8C65
:1004D7001209918F2A152A752901E52AB4FF037598
:0904E7002A8530A2FD20B2FD229D
:10096400D2A030A00330B30E1208930525752301DD
:0709740030A0FD20B3FD22BD
:10000300E5217017FD7F8E12080D7F801209918FF5
:100013002AE52A4480120803752101120964E525A3
:1000230014B40800400302020890003A75F003A4D8
:10003300C58325F0C5837302005202008B0200D3EF
:1000430002010F02014B0201870201C30201FF12E9
:100053000411E53064016005E529B40113E4FD7F73
:100063008E12080DE52A4480120803E4F530F529C1
:10007300052CD3E52C648094834003E4F52C12060D
:10008300E7E525640260C822E4F52C120411D3E5E8
:100093002A648094E04003E4F52AE53064016005B6
:1000A300E529B40113E4FD7F8E12080DAD2A7F828A
:1000B300120806E4F530F529052FD3E52F64809463
:1000C300834003E4F52F1206E7E525640360B922B4
:1000D300E4F52F120411E53064016005E529B4014C
:1000E30013E4FD7F8E12080DAD2A7F84120806E407
:1000F300F530F529052ED3E52E648094834003E47F
:10010300F52E1206E7E525640460C522E4F52E12F8
:100113000411E53064016005E529B40113E4FD7FB2
:100123008E12080DAD2A7F8A120806E4F530F529F0
:100133000524D3E524648094834003E4F524120664
:10014300E7E525640560C522E4F524120411E530D2
:1001530064016005E529B40113E4FD7F8E12080DE7
:10016300AD2A7F86120806E4F530F529052DD3E57F
:100173002D648094834003E4F52D1206E7E525649E
:100183000660C522E4F52D120411E5306401600513
:10019300E529B40113E4FD7F8E12080DAD2A7F8893
:1001A300120806E4F530F5290522D3E5226480948C
:1001B300834003E4F5221206E7E525640760C522C0
:1001C300E4F522120411E53064016005E529B40168
:1001D30013E4FD7F8E12080DAD2A7F8C120806E40E
:1001E300F530F5290528D3E528648094834003E49A
:1001F300F5281206E7E525640860C522E4F5251213
:0502030007F0E4F52303
:0102080022D3
:1006E7007B007A0079361205BA1204F01202091259
:1006F70007841208B67D017F0C1208F67B007A008A
:10070700793112094DE4FF1208F67A007948120987
:100717004DE41DFF1208F67A00793D12094D7F0F4F
:100727001208F67A00792612094D7F0B1208F67B1C
:0F073700FF7A0A790512094D7F907E010208D6DC
:1007BC0075210112086F120822120746E4F530F574
:1007CC0029F523C2B0C2B1C2B2C2B3E523B401054C
:1007DC0012000380F6E52370F21206E7E4F521120D
:0407EC00096480F12B
:10066D00BB010689828A83E0225002E722BBFE028B
:09067D00E32289828A83E49322BE
:10068600BB010CE58229F582E5833AF583E0225029
:1006960006E92582F8E622BBFE06E92582F8E22273
:0D06A600E58229F582E5833AF583E493228D
:1006B300BB010689828A83F0225002F722BBFE0126
:0206C300F32220
:1006C500F8BB010DE58229F582E5833AF583E8F06B
:1006D500225006E92582C8F622BBFE05E92582C817
:0206E500F222FF
:00000001FF
